:020000040000FA
:030000000200E318
:0300330002045470
:03006B00020398F5
:03007B000203F28B
:1000830002036000000080FB120113B900030200A9
:10009300CDE4900101783179028002F0A3D8FCD934
:1000A300FA900231AA82AB8390011678117901800C
:1000B30015E493A3AC82AD838A828B83F0A3AA82D7
:1000C300AB838C828D83D8E9D9E775827875830AEF
:1000D30074001200F575828675830074001200F5B2
:1000E30075D0007581BF751001751101759F0002F0
:1000F300008BC09FF59FE473D09F22D083D082C032
:100103009FE493C0E0740193C0E0740293F59F22CF
:10011300790122FF00000000000000000000000041
:100123000000001200FEAC04001200FE990500124C
:1001330000FE1C06001200FE3F07001200FE7307BC
:10014300001200FE9C07001200FECF07001200FE03
:10015300FC07001200FE1F08001200FE48080012F0
:1001630000FE6008001200FE7008001200FE850801
:10017300001200FE9A08001200FEA808001200FEFA
:10018300CE08001200FE4709001200FE68090012A3
:1001930000FECD09001200FE170A001200FE420AFB
:1001A30000E0F608A3E0F608A3E0F608A3E0F622D1
:1001B300E6F008A3E6F008A3E6F008A3E6F0227051
:1001C3000422600D18C6C333C608C633C6D5E0F48F
:1001D3001822E4732510C582C0E0E51134FFC583FE
:1001E300C0E0E510C3958224F8F8E4C5A88583111F
:1001F300858210C5A8E8CEF0A3E520F0A37808E631
:1002030008F0A3DEFAEFF0A3E58124FAF8E608F09C
:10021300A3E608F0A3E608F0A30808E608F0A3E6BF
:1002230008F0A315811581D0E0FED0E0F815811503
:10023300811581E8C0E0EEC0E0228511838510823C
:10024300E0A3FEE0A3F5207808E0A3F608DFFAE0D8
:10025300A3FFE0A3C0E0E0A3C0E0E0A3C0E0E0A30D
:10026300C0E0E0A3C0E0E4C5A8858210858311C582
:10027300A8D083D0820200FBC0D02510C582C0E085
:10028300E51134FFC583C0E0E510C3958224F31064
:10029300AF088583118582108008858311858210BC
:1002A300D2AFC8F0A3E9F0A3EAF0A3EBF0A3790877
:1002B300E709F0A3D8FAECF0A3EDF0A3EEF0A3EF77
:1002C300F0A3D0E0F0A3D0E0F0A3D0E0F0A3E520CA
:1002D300F0A3E5F0F0A322851183851082E0C0E04E
:1002E300A3E0F9A3E0FAA3E0FBA37808E0F608A3F0
:1002F300DFFAE0FCA3E0FDA3E0FEA3E0FFA3E0C080
:10030300E0A3E0C0E0A3E0F5D0A3E0F520A3E0A3E1
:10031300F5F0E4C5A8858311858210C5A8D082D0E5
:1003230083D0E0F8D0E032D083D082C5F0E493A349
:10033300C5F0C395F0F5F0E493A3C395F04005E54C
:10034300F0048001E475F002A42582F582E5F0351E
:1003530083F583E493A3C0E0E493C0E022C0E07498
:10036300F212027BA2AFE492E0FEC2AFE5E9A2E69D
:1003730050199001FDE07002A3E060099001FD12A5
:10038300044B1201D5759B0053E9BFEEA2E092AF77
:100393007F010202DAC0E074F112027BC2C5E58973
:1003A30060487E00750801750900EE78081201C2E5
:1003B300AF08E5895F602CEEC333F8E433F9E82432
:1003C300FFF582E93401F583E07002A3E0600EE8F3
:1003D30024FFF582E934011204491201D5EFF455E3
:1003E30089F5890EEEC3940840BA7F020202DAC08F
:1003F300E074F112027BC2EBE58A60487E00750867
:1004030001750900EE78081201C2AF08E58A5F6042
:100413002CEEC333F8E433F9E8240FF582E9340210
:10042300F583E07002A3E0600EE8240FF582E9345F
:10043300021204491201D5EFF4558AF58A0EEEC370
:10044300940840BA80A4F583E0F8A3E0F58388829A
:1004530022C0E074F112027BC2E8E58B60487E00A3
:10046300750801750900EE78081201C2AF08E58B23
:100473005F602CEEC333F8E433F9E8241FF582E917
:100483003402F583E07002A3E0600EE8241FF582D6
:10049300E934021204491201D5EFF4558BF58B0EA2
:1004A300EEC3940540BA0203EDC082C08312016219
:1004B300D2AF79017A7D7B0112015C90017DE0C2AC
:1004C300E7F064057038790512058B5004D2F0808B
:1004D30002C2F0A2F0E492E0900239F0900182E0CF
:1004E300A2E74003020583900180E0FA900101E056
:1004F3006A60030205837401900102020582E0240D
:10050300F5900236F090017DE0F912058B5004D28C
:10051300F08002C2F0A2F0E492E0900239F0900180
:1005230085E0F8A3E0F9900232E8F0A3E9F0900245
:10053300377487F0A37401F0900236E0F83395E046
:10054300F9E82487F8E93401F988828983E0900285
:100553003AF088828983A3E0A2E7501C900231E03D
:10056300FA900180E06A601090017EE054DF6441FC
:100573007006740190023BF0900180E0900231F02C
:10058300C2AF12016802087E7A7E7B0112015C9081
:10059300017EE0A2E52274F41201D7EAFEEBFF121A
:1005A3000150E96401700479018069C2AF900108C8
:1005B300EEF0A3EFF0900237E4F0A3F074019001A2
:1005C30003F090023D78081201A490010478081208
:1005D30001B375F005120721E0A424D490618FF0D4
:1005E300900109120710E8906174F0E990617512A7
:1005F3000727E8906172F0E9906173F0E5A8FAC209
:10060300AF9001FD7426F0A37401F0EAA2E792AF64
:10061300D2AF79007F0402023D74F51201D7EAFEDE
:10062300EBFF8C088D09890A900103E0700675E1E0
:10063300EC75E1E3E9C394674003750A679061933E
:10064300E0542270F8120162740B250A90010AF03B
:1006530012071B6004786180027841E890010BF077
:10066300748890010CF0900101E090010D120727AE
:1006730090010EE8F0A3E9F0900110EEF0A3EFF083
:10068300900108E0F8A3120710900112E8F0A3E923
:10069300F07A0080208A82A882E50828F582E5099D
:1006A3003400F583E0C0E0E82414F582E43401F576
:1006B30083D0E0F00AEAC3950A40DA740A250AF9FE
:1006C3007A0A7B0112015612016875E1E9E591A2EC
:1006D300E150FA7591FD12071B6012E4900102F0DC
:1006E3007A4A7B02120144900102E060047900809F
:1006F300027901900103E0700675E1EF75E1ECE921
:100703007006900101E004F07F0302023DE0F583EF
:100713008882E0F8A3E0F922120721A3E02212075E
:1007230031A3A322F0120731E0F8A3E0F9229001EC
:1007330008E0F8A3E0F5838882A3A322748055C65A
:10074300FA53BEFBE59DA2E550FAE59DA2E240F413
:1007530000740169700774494AF5C68005E970029F
:100763008AC6E5C6FAE59E6A70FB43BE040200FB37
:10077300E9FAE59EA2E640047901801AEA7005537E
:10078300C67F800874016A700343C680E5C6FBE533
:100793009E6B70FB79000200FBEBC313FBEA13FAB9
:1007A300EAF8EBF974FF28FA74FF39FB74006870F8
:1007B30003740069601300000000000000000000E3
:1007C3000000000000000080D70200FB74F7120154
:1007D300D7EAFEEBFFEEF8EFF974FF28FE74FF395A
:1007E300FF740068700374006960097AE87B031280
:1007F300014480E17F0102023DC082C08390618990
:10080300E04460F074099061FAF074159061B2F0FD
:10081300E49061AEF01201687900805F74F6120112
:10082300D775E1EE7591FD7C0080108C08EA2508F0
:10083300F582EB3400F583E0F5D90CECC39940EB7A
:100843007F0202023DC082C083800DE5D98A828B7C
:1008530083F0A3AA82AB8319E970F0801EC082C023
:10086300839061A3E0C2E6F0539AFE800EC082C07B
:10087300839061A3E0D2E6F0439A01D083D0820251
:1008830000FBC292C280C2F989F9A2F950FC0000B0
:100893000000D2920200FBC292D280C2F989F9A26F
:1008A300F950FC80E974F71201D7E9FEEAFF74B04E
:1008B3004FF912016EEEC4540F4410F912016E7415
:1008C3000F5EF912016E7F0102023D74F71201D728
:1008D30053F3FED28043FD0153F4FBD29243FE0453
:1008E30053F37FC28743FD8079AF12016E794012C3
:1008F300016E79A012016E79A612016E79A412011C
:100903006E79A212016E79C812016E792F12016EEF
:1009130079F812016E790012016E798112016E79F4
:100923003812016E7F007E00EFFAEEF912017A7938
:10093300001201740EEEC3948440ED0FEFC39408CC
:1009430040E48082C082C083790112019E79021241
:10095300019E790312019E790412019E7A327B0073
:1009630012014A80E3C082C083790012013EE9602C
:10097300107901120138790012013EE96003120176
:1009830086790012013843FE01C29043FE02C291F0
:1009930043FE10C29443FD02C281120A0D120AECF7
:1009A30043F10243F48043F44043F420E59E75FB96
:1009B3008075F800A2E0E492E0240F4420F5FC7572
:1009C300FA53120180D2AF02087EC082C08379003D
:1009D300120A0DA28450227800A284500478007970
:1009E30000E8240108E93400F9C3E894F4E9940128
:1009F300A2D265D03340E2790153F3FD900229E09E
:100A0300A2E0928143FD0202087E53F3EF53FDEF10
:100A1300438F1022C082C083E912032A01033F0AD5
:100A23002B0A2F0A330A370AD2908010D291800CF6
:100A3300D2948008D2817401900229F002087EC00A
:100A430082C083E912032A0103750A560A5D0A620A
:100A53000A690A639001E590801863900280F76346
:100A63009010E590800C638002E580900229E06499
:100A730001F002087E90022D7407F0A37420F07435
:100A83001990022FF07401900230F012018C120AB7
:100A9300EC120150E964017003120186790212011C
:100AA30098790112019890022B7420F0A37425F019
:100AB3007A2B7B0212012CE964017003120186E494
:100AC30090022AF0900103F075E1EF75E1EC120159
:100AD30092E9640170F879017C2A7D027AEF7BBE8A
:100AE300120132C2AFD2AF80E553F5FE53FFFE438E
:060AF300F70143F340226D
:04000005000000E314
:00000001FF
