:020000040000FA
:030000000200E318
:030033000204388C
:03006B000203721B
:03007B000203CBB2
:1000830002033A00000080FB120113B900030200CF
:10009300CDE4900101783179028002F0A3D8FCD934
:1000A300FA900231AA82AB8390011678117901800C
:1000B30015E493A3AC82AD838A828B83F0A3AA82D7
:1000C300AB838C828D83D8E9D9E775824075830A27
:1000D30074001200F575828675830074001200F5B2
:1000E30075D0007581BF751001751101759F0002F0
:1000F300008BC09FF59FE473D09F22D083D082C032
:100103009FE493C0E0740193C0E0740293F59F22CF
:10011300790122FF00000000000000000000000041
:100123000000001200FE8F04001200FE780500128A
:1001330000FEF905001200FE1D07001200FE510724
:10014300001200FE7A07001200FEA707001200FE4D
:10015300CE07001200FEF107001200FE1A0800127B
:1001630000FE3208001200FE4208001200FE57088B
:10017300001200FE6C08001200FE7A08001200FE56
:100183009E08001200FE1809001200FE3909001231
:1001930000FE9D09001200FEE709001200FE110A8D
:1001A30000E0FAA3E0FBA3E0FCA3E0FD22EAF0A356
:1001B300EBF0A3ECF0A3EDF022700422600D18C65F
:1001C300C333C608C633C6D5E0F41822E47325103A
:1001D300C582C0E0E51134FFC583C0E0E510C395D7
:1001E3008224F810AF0885831185821080088583E7
:1001F30011858210D2AFCEF0A3E520F0A37808E6F4
:1002030008F0A3DEFAEFF0A3E58124FAF8E608F09C
:10021300A3E608F0A3E608F0A30808E608F0A3E6BF
:1002230008F0A315811581D0E0FED0E0F815811503
:10023300811581E8C0E0EEC0E0228511838510823C
:10024300E0A3FEE0A3F5207808E0A3F608DFFAE0D8
:10025300A3FFE0A3C0E0E0A3C0E0E0A3C0E0E0A30D
:10026300C0E0E0A3C0E010AF088582108583118051
:1002730008858210858311D2AFD083D0820200FB20
:10028300C0D02510C582C0E0E51134FFC583C0E0AE
:10029300E510C3958224F310AF088583118582107E
:1002A3008008858311858210D2AFC8F0A3E9F0A33B
:1002B300EAF0A3EBF0A37908E709F0A3D8FAECF08E
:1002C300A3EDF0A3EEF0A3EFF0A3D0E0F0A3D0E012
:1002D300F0A3D0E0F0A3E520F0A3E5F0F0A322859E
:1002E3001183851082E0C0E0A3E0F9A3E0FAA3E064
:1002F300FBA37808E0F608A3DFFAE0FCA3E0FDA384
:10030300E0FEA3E0FFA3E0C0E0A3E0C0E0A3E0F5CC
:10031300D0A3E0F520A3E0A3F5F010AF0885831187
:100323008582108008858311858210D2AFD082D058
:1003330083D0E0F8D0E032C0E074F2120283A2AFBF
:10034300E433FEC2AFE5E9A2E6501A9001FDE0F8FE
:10035300A3E0F9E8496008E0F58388821201CF75CC
:100363009B0053E9BFEEA2E092AF7F010202E2C01D
:10037300E074F1120283C2C5E58960477E00750807
:1003830001750900EE78081201BCAF08E5895F60CA
:100393002BEEC333F8E433F974FF28F582740112AA
:1003A30004216014EEC333F8E433F974FF28F582B3
:1003B300740112042C1201CFEFF452890EEEC39490
:1003C3000840BB7F020202E2C0E074F1120283C262
:1003D300EBE58A60477E00750801750900EE780831
:1003E3001201BCAF08E58A5F602BEEC333F8E43338
:1003F300F9740F28F58274021204216014EEC333DA
:10040300F8E433F9740F28F582740212042C1201F4
:10041300CFEFF4528A0EEEC3940840BB80A539F5A2
:1004230083E0F8A3E0F9E8492239F583E0F8A3E093
:10043300F583888222C0E074F1120283C2E8E58B5F
:1004430060477E00750801750900EE78081201BC4B
:10045300AF08E58B5F602BEEC333F8E433F9741F09
:1004630028F58274021204216014EEC333F8E433D6
:10047300F9741F28F582740212042C1201CFEFF4D1
:10048300528B0EEEC3940540BB0203C6C082C083E9
:10049300120162D2AF79017A7D7B0112015C900176
:1004A3007DE0C2E7F064057035790512056A5004F2
:1004B300D2F08002C2F0A2F0E433900239F090014E
:1004C30082E0A2E74003020562900180E0F8900118
:1004D30001E0686003020562A37401020561E02480
:1004E300F5900236F090017DE0F912056A5004D2CE
:1004F300F08002C2F0A2F0E433900239F09001855B
:10050300E0F8A3E0F9900232E8F0A3E9F0900237B3
:100513007487F0A37401F0900236E0F83395E0F9A4
:10052300748728F8740139F988828983E090023A44
:10053300F088828983A3E0A2E7501C900231E0F89F
:10054300900180E068601090017EE054DF644170A8
:100553000690023B7401F0900180E0900231F0C2FA
:10056300AF1201680208507A7E7B0112015C900190
:100573007EE0A2E52274F71201D1EAFEEBFF12013D
:1005830050E96401700479018067C2AF900108EEFD
:10059300F0A3EFF0900237E4F0A3F090010304F02E
:1005A30090023D1201A49001041201B075F00512EE
:1005B300070DE0A424D490618FF09001091206EF97
:1005C300E8906174F0E9A3F0900108E0F8A3120643
:1005D300FAE8906172F0E9A3F0E5A8F8C2AF9001E0
:1005E300FD7426F0A37401F0E8A2E792AFD2AF79CD
:1005F300007F0102023D74F51201D1EAFEEBFF8C8C
:10060300088D09890A900103E0700675E1EC75E134
:10061300E3E9C394674003750A67906193E054224A
:1006230070F8120162740B250A90010AF012070791
:1006330090010B6004746180027441F0A37488F02C
:10064300900101E090010DF09001091206FA90016A
:100653000EE8F0A3E9F0A3EEF0A3EFF0900108E0B9
:10066300F8A31206EF900112E8F0A3E9F07A0080F4
:10067300218A82A882E50828F582E5093400F583FA
:10068300E0C0E0741428F58274013400F583D0E0EF
:10069300F00AEAC3950A40D9740A250AF97A0A7B53
:1006A3000112015612016875E1E9E591A2E150FAE0
:1006B3007591FD1207076012900102E4F07A4A7BFC
:1006C30002120144900102E0600479008002790182
:1006D300900103E0700675E1EF75E1ECE9A2E040FB
:1006E30006900101E004F07F0302023DE0F58388F8
:1006F30082E0F8A3E0F922E0F5838882A3A3E0F87F
:10070300A3E0F92212070DA3E022900108E0F8A369
:10071300E0F5838882A3A3A3A322E5C65480F853FC
:10072300BEFBE59DA2E550FAE59DA2E240F400740C
:1007330001697007744948F5C68005E9700288C6E7
:10074300E5C6F8E59E6870FB43BE040200FBE9F8CA
:10075300E59EA2E640047901801AE8700553C67F3E
:100763008008740168700343C680E5C6F9E59E6995
:1007730070FB79000200FBEBC313FBEA13FAEAF800
:10078300EBF9E824FFFAE934FFFBE84960130000C2
:1007930000000000000000000000000000000080D6
:1007A300DD0200FB74F71201D1EAFEEBFFEEF8EF76
:1007B300F9E824FFFEE934FFFFE84960097AE87BA2
:1007C3000312014480E77F0102023DC082C083908F
:1007D3006189E04460F09061FA7409F09061B27449
:1007E30015F09061AEE4F01201687900805F74F651
:1007F3001201D175E1EE7591FD780080108808EA49
:100803002508F582EB3400F583E0F5D908E8C399B0
:1008130040EB7F0202023DC082C083800DE5D98A8E
:10082300828B83F0A3AA82AB8319E970F0801EC088
:1008330082C0839061A3E0C2E6F0539AFE800EC0AB
:1008430082C0839061A3E0D2E6F0439A01D083D0C3
:10085300820200FBC292C280C2F989F9A2F950FC5C
:1008630000000000D2920200FBC292D280C2F9893A
:10087300F9A2F950FC80E974F71201D1E9FEEAFF0D
:1008830074B04FF912016EEEC4540F4410F9120103
:100893006E740F5EF912016E0205F474F71201D142
:1008A30053F3FED28043FD0153F4FBD29243FE0483
:1008B30053F37FC28743FD8079AF12016E794012F3
:1008C300016E79A012016E79A612016E79A412014C
:1008D3006E79A212016E79C812016E792F12016E20
:1008E30079F812016E790012016E798112016E7925
:1008F3003812016E7F007E00EFFAEEF912017A7969
:10090300001201740EEEC3948440ED0FEFC39408FC
:1009130040E40205F4C082C083790112019E79028A
:1009230012019E790312019E790412019E7A327B91
:100933000012014A80E3C082C083790012013EE9BC
:1009430060107901120138790012013EE960031247
:100953000186790012013843FE01C29043FE02C2B0
:100963009143FE10C29443FD02C2811209DD120AB3
:10097300B043F10243F48043F44043F420E59E7511
:10098300FB8075F800A2E0E433240F4420F5FC75E6
:10099300FA53120180D2AF020850C082C08379009B
:1009A3001209DDA28150227800A2815004780079D7
:1009B30000E8240108E93400F9C3E894F4E9940158
:1009C300A2D265D03340E2790153F3FD900229E0CE
:1009D300A2E0928143FD0202085053F3FD53FDFD53
:1009E300438F0222C082C083E914600B14600C148D
:1009F300600D14600E8014D2908010D291800CD2BE
:100A0300948008D2819002297401F0020850C082B8
:100A1300C083E914600B14600D14600F146011801F
:100A2300196390018014639002800F639010800A11
:100A3300638002900229E06401F002085090022DC5
:100A43007407F0A37420F0A37419F0A37401F012D7
:100A5300018C120AB0120150E9640170031201867D
:100A63007902120198790112019890022B7420F0F7
:100A7300A37425F07A2B7B0212012CE96401700325
:100A830012018690022AE4F0900103F075E1EF75FC
:100A9300E1EC120192E9640170F879017C2A7D028C
:100AA3007AEF7BBE120132C2AFD2AF80E553F5FEBF
:0A0AB30053FFFE43F70143F3402216
:04000005000000E314
:00000001FF
